{
  "_format": "hh-sol-artifact-1",
  "contractName": "KingJames",
  "sourceName": "contracts/Tokens/KingJames.sol",
  "abi": [
    {
      "inputs": [],
      "stateMutability": "nonpayable",
      "type": "constructor"
    },
    {
      "anonymous": false,
      "inputs": [
        {
          "indexed": true,
          "internalType": "address",
          "name": "owner",
          "type": "address"
        },
        {
          "indexed": true,
          "internalType": "address",
          "name": "spender",
          "type": "address"
        },
        {
          "indexed": false,
          "internalType": "uint256",
          "name": "value",
          "type": "uint256"
        }
      ],
      "name": "Approval",
      "type": "event"
    },
    {
      "anonymous": false,
      "inputs": [
        {
          "indexed": true,
          "internalType": "address",
          "name": "from",
          "type": "address"
        },
        {
          "indexed": true,
          "internalType": "address",
          "name": "to",
          "type": "address"
        },
        {
          "indexed": false,
          "internalType": "uint256",
          "name": "value",
          "type": "uint256"
        }
      ],
      "name": "Transfer",
      "type": "event"
    },
    {
      "inputs": [],
      "name": "_owner",
      "outputs": [
        {
          "internalType": "address",
          "name": "",
          "type": "address"
        }
      ],
      "stateMutability": "view",
      "type": "function"
    },
    {
      "inputs": [
        {
          "internalType": "address",
          "name": "owner",
          "type": "address"
        },
        {
          "internalType": "address",
          "name": "spender",
          "type": "address"
        }
      ],
      "name": "allowance",
      "outputs": [
        {
          "internalType": "uint256",
          "name": "",
          "type": "uint256"
        }
      ],
      "stateMutability": "view",
      "type": "function"
    },
    {
      "inputs": [
        {
          "internalType": "address",
          "name": "spender",
          "type": "address"
        },
        {
          "internalType": "uint256",
          "name": "amount",
          "type": "uint256"
        }
      ],
      "name": "approve",
      "outputs": [
        {
          "internalType": "bool",
          "name": "",
          "type": "bool"
        }
      ],
      "stateMutability": "nonpayable",
      "type": "function"
    },
    {
      "inputs": [
        {
          "internalType": "address",
          "name": "account",
          "type": "address"
        }
      ],
      "name": "balanceOf",
      "outputs": [
        {
          "internalType": "uint256",
          "name": "",
          "type": "uint256"
        }
      ],
      "stateMutability": "view",
      "type": "function"
    },
    {
      "inputs": [],
      "name": "decimals",
      "outputs": [
        {
          "internalType": "uint8",
          "name": "",
          "type": "uint8"
        }
      ],
      "stateMutability": "view",
      "type": "function"
    },
    {
      "inputs": [
        {
          "internalType": "address",
          "name": "spender",
          "type": "address"
        },
        {
          "internalType": "uint256",
          "name": "subtractedValue",
          "type": "uint256"
        }
      ],
      "name": "decreaseAllowance",
      "outputs": [
        {
          "internalType": "bool",
          "name": "",
          "type": "bool"
        }
      ],
      "stateMutability": "nonpayable",
      "type": "function"
    },
    {
      "inputs": [
        {
          "internalType": "address",
          "name": "spender",
          "type": "address"
        },
        {
          "internalType": "uint256",
          "name": "addedValue",
          "type": "uint256"
        }
      ],
      "name": "increaseAllowance",
      "outputs": [
        {
          "internalType": "bool",
          "name": "",
          "type": "bool"
        }
      ],
      "stateMutability": "nonpayable",
      "type": "function"
    },
    {
      "inputs": [],
      "name": "name",
      "outputs": [
        {
          "internalType": "string",
          "name": "",
          "type": "string"
        }
      ],
      "stateMutability": "view",
      "type": "function"
    },
    {
      "inputs": [],
      "name": "symbol",
      "outputs": [
        {
          "internalType": "string",
          "name": "",
          "type": "string"
        }
      ],
      "stateMutability": "view",
      "type": "function"
    },
    {
      "inputs": [],
      "name": "totalSupply",
      "outputs": [
        {
          "internalType": "uint256",
          "name": "",
          "type": "uint256"
        }
      ],
      "stateMutability": "view",
      "type": "function"
    },
    {
      "inputs": [
        {
          "internalType": "address",
          "name": "to",
          "type": "address"
        },
        {
          "internalType": "uint256",
          "name": "amount",
          "type": "uint256"
        }
      ],
      "name": "transfer",
      "outputs": [
        {
          "internalType": "bool",
          "name": "",
          "type": "bool"
        }
      ],
      "stateMutability": "nonpayable",
      "type": "function"
    },
    {
      "inputs": [
        {
          "internalType": "address",
          "name": "from",
          "type": "address"
        },
        {
          "internalType": "address",
          "name": "to",
          "type": "address"
        },
        {
          "internalType": "uint256",
          "name": "amount",
          "type": "uint256"
        }
      ],
      "name": "transferFrom",
      "outputs": [
        {
          "internalType": "bool",
          "name": "",
          "type": "bool"
        }
      ],
      "stateMutability": "nonpayable",
      "type": "function"
    }
  ],
  "bytecode": "0x60806040526a4a723dc6b40b8a9a0000006006553480156200002057600080fd5b50604080518082018252600b81526a22a727a1a4103a37b5b2b760a91b60208083019182528351808501909452600584526408a9c9e86960db1b9084015281519192916200007191600391620001b9565b50805162000087906004906020840190620001b9565b5050600580546001600160a01b03191633908117909155600654620000ad9250620000d1565b6006546005546001600160a01b0316600090815260076020526040902055620002c3565b6001600160a01b0382166200012c5760405162461bcd60e51b815260206004820152601f60248201527f45524332303a206d696e7420746f20746865207a65726f206164647265737300604482015260640160405180910390fd5b80600260008282546200014091906200025f565b90915550506001600160a01b038216600090815260208190526040812080548392906200016f9084906200025f565b90915550506040518181526001600160a01b038316906000907fddf252ad1be2c89b69c2b068fc378daa952ba7f163c4a11628f55a4df523b3ef9060200160405180910390a35050565b828054620001c79062000286565b90600052602060002090601f016020900481019282620001eb576000855562000236565b82601f106200020657805160ff191683800117855562000236565b8280016001018555821562000236579182015b828111156200023657825182559160200191906001019062000219565b506200024492915062000248565b5090565b5b8082111562000244576000815560010162000249565b600082198211156200028157634e487b7160e01b600052601160045260246000fd5b500190565b600181811c908216806200029b57607f821691505b60208210811415620002bd57634e487b7160e01b600052602260045260246000fd5b50919050565b6108bd80620002d36000396000f3fe608060405234801561001057600080fd5b50600436106100b45760003560e01c806370a082311161007157806370a082311461014157806395d89b411461016a578063a457c2d714610172578063a9059cbb14610185578063b2bdfa7b14610198578063dd62ed3e146101c357600080fd5b806306fdde03146100b9578063095ea7b3146100d757806318160ddd146100fa57806323b872dd1461010c578063313ce5671461011f578063395093511461012e575b600080fd5b6100c16101d6565b6040516100ce91906106fa565b60405180910390f35b6100ea6100e536600461076b565b610268565b60405190151581526020016100ce565b6002545b6040519081526020016100ce565b6100ea61011a366004610795565b610280565b604051601281526020016100ce565b6100ea61013c36600461076b565b6102a4565b6100fe61014f3660046107d1565b6001600160a01b031660009081526020819052604090205490565b6100c16102c6565b6100ea61018036600461076b565b6102d5565b6100ea61019336600461076b565b610355565b6005546101ab906001600160a01b031681565b6040516001600160a01b0390911681526020016100ce565b6100fe6101d13660046107f3565b610363565b6060600380546101e590610826565b80601f016020809104026020016040519081016040528092919081815260200182805461021190610826565b801561025e5780601f106102335761010080835404028352916020019161025e565b820191906000526020600020905b81548152906001019060200180831161024157829003601f168201915b5050505050905090565b60003361027681858561038e565b5060019392505050565b60003361028e8582856104b2565b61029985858561052c565b506001949350505050565b6000336102768185856102b78383610363565b6102c19190610861565b61038e565b6060600480546101e590610826565b600033816102e38286610363565b9050838110156103485760405162461bcd60e51b815260206004820152602560248201527f45524332303a2064656372656173656420616c6c6f77616e63652062656c6f77604482015264207a65726f60d81b60648201526084015b60405180910390fd5b610299828686840361038e565b60003361027681858561052c565b6001600160a01b03918216600090815260016020908152604080832093909416825291909152205490565b6001600160a01b0383166103f05760405162461bcd60e51b8152602060048201526024808201527f45524332303a20617070726f76652066726f6d20746865207a65726f206164646044820152637265737360e01b606482015260840161033f565b6001600160a01b0382166104515760405162461bcd60e51b815260206004820152602260248201527f45524332303a20617070726f766520746f20746865207a65726f206164647265604482015261737360f01b606482015260840161033f565b6001600160a01b0383811660008181526001602090815260408083209487168084529482529182902085905590518481527f8c5be1e5ebec7d5bd14f71427d1e84f3dd0314c0f7b2291e5b200ac8c7c3b925910160405180910390a3505050565b60006104be8484610363565b9050600019811461052657818110156105195760405162461bcd60e51b815260206004820152601d60248201527f45524332303a20696e73756666696369656e7420616c6c6f77616e6365000000604482015260640161033f565b610526848484840361038e565b50505050565b6001600160a01b0383166105905760405162461bcd60e51b815260206004820152602560248201527f45524332303a207472616e736665722066726f6d20746865207a65726f206164604482015264647265737360d81b606482015260840161033f565b6001600160a01b0382166105f25760405162461bcd60e51b815260206004820152602360248201527f45524332303a207472616e7366657220746f20746865207a65726f206164647260448201526265737360e81b606482015260840161033f565b6001600160a01b0383166000908152602081905260409020548181101561066a5760405162461bcd60e51b815260206004820152602660248201527f45524332303a207472616e7366657220616d6f756e7420657863656564732062604482015265616c616e636560d01b606482015260840161033f565b6001600160a01b038085166000908152602081905260408082208585039055918516815290812080548492906106a1908490610861565b92505081905550826001600160a01b0316846001600160a01b03167fddf252ad1be2c89b69c2b068fc378daa952ba7f163c4a11628f55a4df523b3ef846040516106ed91815260200190565b60405180910390a3610526565b600060208083528351808285015260005b818110156107275785810183015185820160400152820161070b565b81811115610739576000604083870101525b50601f01601f1916929092016040019392505050565b80356001600160a01b038116811461076657600080fd5b919050565b6000806040838503121561077e57600080fd5b6107878361074f565b946020939093013593505050565b6000806000606084860312156107aa57600080fd5b6107b38461074f565b92506107c16020850161074f565b9150604084013590509250925092565b6000602082840312156107e357600080fd5b6107ec8261074f565b9392505050565b6000806040838503121561080657600080fd5b61080f8361074f565b915061081d6020840161074f565b90509250929050565b600181811c9082168061083a57607f821691505b6020821081141561085b57634e487b7160e01b600052602260045260246000fd5b50919050565b6000821982111561088257634e487b7160e01b600052601160045260246000fd5b50019056fea26469706673582212203a2079912857c7c31883df72836ce1497c00125f8821ae8fa4238c8705833d6964736f6c634300080a0033",
  "linkReferences": {},
  "deployedLinkReferences": {}
}